{
  "contractName": "CVVerification",
  "abi": [
    {
      "inputs": [
        {
          "internalType": "string",
          "name": "",
          "type": "string"
        },
        {
          "internalType": "string",
          "name": "",
          "type": "string"
        }
      ],
      "name": "cvElements",
      "outputs": [
        {
          "internalType": "string",
          "name": "element",
          "type": "string"
        },
        {
          "internalType": "bool",
          "name": "verified",
          "type": "bool"
        }
      ],
      "stateMutability": "view",
      "type": "function",
      "constant": true
    },
    {
      "inputs": [
        {
          "internalType": "string",
          "name": "_name",
          "type": "string"
        },
        {
          "internalType": "string",
          "name": "_element",
          "type": "string"
        }
      ],
      "name": "submitCVElement",
      "outputs": [],
      "stateMutability": "nonpayable",
      "type": "function"
    },
    {
      "inputs": [
        {
          "internalType": "string",
          "name": "_name",
          "type": "string"
        },
        {
          "internalType": "string",
          "name": "_element",
          "type": "string"
        },
        {
          "internalType": "bool",
          "name": "_verified",
          "type": "bool"
        }
      ],
      "name": "verifyCVElement",
      "outputs": [],
      "stateMutability": "nonpayable",
      "type": "function"
    },
    {
      "inputs": [
        {
          "internalType": "string",
          "name": "_name",
          "type": "string"
        },
        {
          "internalType": "string",
          "name": "_element",
          "type": "string"
        }
      ],
      "name": "checkVerificationStatus",
      "outputs": [
        {
          "internalType": "bool",
          "name": "",
          "type": "bool"
        }
      ],
      "stateMutability": "view",
      "type": "function",
      "constant": true
    }
  ],
  "bytecode": "0x608060405234801561001057600080fd5b506109f8806100206000396000f3fe608060405234801561001057600080fd5b506004361061004c5760003560e01c8063219b72c514610051578063530831b71461008157806357d3d94b146100b25780636084e696146100ce575b600080fd5b61006b60048036038101906100669190610473565b6100ea565b6040516100789190610506565b60405180910390f35b61009b60048036038101906100969190610473565b61013e565b6040516100a99291906105a0565b60405180910390f35b6100cc60048036038101906100c79190610473565b610230565b005b6100e860048036038101906100e391906105fc565b6102bf565b005b600080836040516100fb91906106c3565b90815260200160405180910390208260405161011791906106c3565b908152602001604051809103902060010160009054906101000a900460ff16905092915050565b600082805160208101820180518482526020830160208501208183528095505050505050818051602081018201805184825260208301602085012081835280955050505050506000915091505080600001805461019a90610709565b80601f01602080910402602001604051908101604052809291908181526020018280546101c690610709565b80156102135780601f106101e857610100808354040283529160200191610213565b820191906000526020600020905b8154815290600101906020018083116101f657829003601f168201915b5050505050908060010160009054906101000a900460ff16905082565b60405180604001604052808281526020016000151581525060008360405161025891906106c3565b90815260200160405180910390208260405161027491906106c3565b9081526020016040518091039020600082015181600001908161029791906108f0565b5060208201518160010160006101000a81548160ff0219169083151502179055509050505050565b806000846040516102d091906106c3565b9081526020016040518091039020836040516102ec91906106c3565b908152602001604051809103902060010160006101000a81548160ff021916908315150217905550505050565b6000604051905090565b600080fd5b600080fd5b600080fd5b600080fd5b6000601f19601f8301169050919050565b7f4e487b7100000000000000000000000000000000000000000000000000000000600052604160045260246000fd5b61038082610337565b810181811067ffffffffffffffff8211171561039f5761039e610348565b5b80604052505050565b60006103b2610319565b90506103be8282610377565b919050565b600067ffffffffffffffff8211156103de576103dd610348565b5b6103e782610337565b9050602081019050919050565b82818337600083830152505050565b6000610416610411846103c3565b6103a8565b90508281526020810184848401111561043257610431610332565b5b61043d8482856103f4565b509392505050565b600082601f83011261045a5761045961032d565b5b813561046a848260208601610403565b91505092915050565b6000806040838503121561048a57610489610323565b5b600083013567ffffffffffffffff8111156104a8576104a7610328565b5b6104b485828601610445565b925050602083013567ffffffffffffffff8111156104d5576104d4610328565b5b6104e185828601610445565b9150509250929050565b60008115159050919050565b610500816104eb565b82525050565b600060208201905061051b60008301846104f7565b92915050565b600081519050919050565b600082825260208201905092915050565b60005b8381101561055b578082015181840152602081019050610540565b60008484015250505050565b600061057282610521565b61057c818561052c565b935061058c81856020860161053d565b61059581610337565b840191505092915050565b600060408201905081810360008301526105ba8185610567565b90506105c960208301846104f7565b9392505050565b6105d9816104eb565b81146105e457600080fd5b50565b6000813590506105f6816105d0565b92915050565b60008060006060848603121561061557610614610323565b5b600084013567ffffffffffffffff81111561063357610632610328565b5b61063f86828701610445565b935050602084013567ffffffffffffffff8111156106605761065f610328565b5b61066c86828701610445565b925050604061067d868287016105e7565b9150509250925092565b600081905092915050565b600061069d82610521565b6106a78185610687565b93506106b781856020860161053d565b80840191505092915050565b60006106cf8284610692565b915081905092915050565b7f4e487b7100000000000000000000000000000000000000000000000000000000600052602260045260246000fd5b6000600282049050600182168061072157607f821691505b602082108103610734576107336106da565b5b50919050565b60008190508160005260206000209050919050565b60006020601f8301049050919050565b600082821b905092915050565b60006008830261079c7fffffffffffffffffffffffffffffffffffffffffffffffffffffffffffffffff8261075f565b6107a6868361075f565b95508019841693508086168417925050509392505050565b6000819050919050565b6000819050919050565b60006107ed6107e86107e3846107be565b6107c8565b6107be565b9050919050565b6000819050919050565b610807836107d2565b61081b610813826107f4565b84845461076c565b825550505050565b600090565b610830610823565b61083b8184846107fe565b505050565b5b8181101561085f57610854600082610828565b600181019050610841565b5050565b601f8211156108a4576108758161073a565b61087e8461074f565b8101602085101561088d578190505b6108a16108998561074f565b830182610840565b50505b505050565b600082821c905092915050565b60006108c7600019846008026108a9565b1980831691505092915050565b60006108e083836108b6565b9150826002028217905092915050565b6108f982610521565b67ffffffffffffffff81111561091257610911610348565b5b61091c8254610709565b610927828285610863565b600060209050601f83116001811461095a5760008415610948578287015190505b61095285826108d4565b8655506109ba565b601f1984166109688661073a565b60005b828110156109905784890151825560018201915060208501945060208101905061096b565b868310156109ad57848901516109a9601f8916826108b6565b8355505b6001600288020188555050505b50505050505056fea2646970667358221220015cd0182c0e03724c6b929b6b3332aa7e77b915a25d56256dfff71e876560f664736f6c63430008130033",
  "immutableReferences": {},
  "source": "// SPDX-License-Identifier: MIT\r\npragma solidity ^0.8.19;\r\n\r\ncontract CVVerification {\r\n    struct CVElement {\r\n        string element;\r\n        bool verified;\r\n    }\r\n\r\n    mapping(string => mapping(string => CVElement)) public cvElements;\r\n\r\n    function submitCVElement(string memory _name, string memory _element) public {\r\n        cvElements[_name][_element] = CVElement(_element, false);\r\n    }\r\n\r\n    function verifyCVElement(string memory _name, string memory _element, bool _verified) public {\r\n        cvElements[_name][_element].verified = _verified;\r\n    }\r\n\r\n    function checkVerificationStatus(string memory _name, string memory _element) public view returns (bool) {\r\n        return cvElements[_name][_element].verified;\r\n    }\r\n}\r\n",
  "sourcePath": "C:\\Users\\imons\\JSProjects\\tryBlock\\contracts\\cvVerification.sol",
  "compiler": {
    "name": "solc",
    "version": "0.8.19+commit.7dd6d404.Emscripten.clang"
  },
  "schemaVersion": "3.4.16",
  "updatedAt": "2024-09-01T17:38:52.517Z",
  "networkType": "ethereum",
  "devdoc": {
    "kind": "dev",
    "methods": {},
    "version": 1
  },
  "userdoc": {
    "kind": "user",
    "methods": {},
    "version": 1
  }
}